:10000000184A0020F1020000ED020000ED0200009D
:1000100000000000000000000000000000000000E0
:10002000000000000000000000000000AD0C000017
:1000300000000000000000000D0D0000510D000048
:10004000ED020000ED020000ED020000410800009A
:10005000ED020000ED020000ED020000ED020000E4
:10006000ED020000C9090000ED020000ED020000F1
:10007000ED020000ED020000ED020000ED020000C4
:10008000ED020000ED020000ED020000ED020000B4
:10009000ED0200000000000000000000ED02000082
:1000A000ED020000ED020000ED020000ED02000094
:1000B0000000000010B5064C2378002B07D1054B3B
:1000C000002B02D0044800E000BF0123237010BDC4
:1000D0000800002000000000A4200000084B10B51C
:1000E000002B03D00749084800E000BF0748036819
:1000F000002B00D110BD064B002BFBD09847F9E731
:10010000000000000C000020A4200000A42000003B
:100110000000000070B5104D86B02C68844219D1E3
:100120000123092002AE33700B220C490C4B6844AA
:100130009847002331001A0068680A4DA8470A4B07
:10014000984701235B420200009320000023022114
:10015000064CA04706B070BD24000020102000000F
:10016000E11F0000911000004D1700005D1D000010
:10017000F7B5174B002210210A209847154C164B53
:10018000606001209847154BFA21009300238900F5
:100190001A00134D1348A847134B01250600206091
:1001A00098476D42020000953000002301210F4E58
:1001B000B0472600083600232A00310060680C4F43
:1001C000B847002800D1F7BD30000A4B9847F0E748
:1001D0003910000024000020E1110000150100008A
:1001E000191D00001B2000004D1700005D1D0000C0
:1001F000E9120000990B0000F0B5104E87B034688A
:10020000844219D10920022502AF0B220C490D4B63
:1002100068443D709847002339001A0070680A4E00
:10022000B0470A4B984701235B420200009320002D
:1002300000232900064CA04707B0F0BD3C00002079
:100240002C200000E11F0000911000004D1700005D
:100250005D1D0000F7B5174B002210210A209847BA
:10026000154C164B606001209847154B15490093BB
:100270000023154D1A001548A847154B0125060007
:10028000206098476D420200009530000023012154
:10029000104EB0472600083600232A00310060685F
:1002A0000D4FB847002800D1F7BD30000B4B9847E1
:1002B000F0E7C046391000003C000020E1110000CA
:1002C000F9010000DC050000191D000037200000C6
:1002D0004D1700005D1D0000E9120000990B0000A1
:1002E00010B5014B984710BD3D040000FEE700002B
:1002F0002148224970B5884204D00023204CCA18F6
:10030000A24232D300211F4B1F4A934231D3FF2117
:100310001E4B1F4A8B43936002220C250824302673
:100320001C4B1D485A62C378FC398B431343C3707E
:10033000C378AB432343C370184B987BB04306008C
:10034000202030439873987BA84304439C73987B88
:10035000884302439A738023114A51680B435360C8
:10036000104B9847104B9847FEE7C558043315606B
:10037000C5E702C3C9E7C046A42000000000002072
:100380000800002008000020182A002000000000BB
:1003900000ED00E0FC7000410050004100480041C9
:1003A00000400041991F0000890A00000423044A0C
:1003B000116A0B431362034A034B5A807047C046CD
:1003C0000004004014400000000C00400D4B0122CE
:1003D000180030B54A3001780F2491431143017061
:1003E0001900022035310D784B33A543284308709E
:1003F0001878904302431A700B781C402023234343
:100400000B7030BD0044004113B5064B98470023E4
:10041000054A009305491033054C0648A047064B92
:10042000984713BDAD0300005400002000080042AF
:100430008D060000A8290020CD03000010B50A4B4E
:1004400098470A4B98472023094A91690B439361C7
:10045000084A094B5A80094B984709490200094B41
:100460000948984710BDC0468907000009040000EC
:100470000004004004400000000C00403D08000063
:100480000014004069050000F8290020EFF31083F4
:10049000036072B6BFF35F8F7047BFF35F8F03686F
:1004A00083F31088704710B50368984710BD0000AB
:1004B000F7B50568002D02D1114B9847F7BD01260D
:1004C0002C0000278B680093B31A0193A668636819
:1004D000B44693420DD863449B1A009EB3420CD29B
:1004E00023682700002B02D13800064BE5E71C00EB
:1004F000ECE7019EF3186344EFE7A542F4D1DBE794
:10050000070700000F070000F8B5036905005E1C2F
:10051000037E44690661DB0702D4037E9B0717D57F
:1005200002232A7E13432B76F8BD2F0014370C4B81
:1005300038009847237C012B05D1666032002100EA
:100540003800084B98476F69E368200098473C00E3
:10055000002CE9D06368A268F31A9342E5D2E3E77E
:1005600017070000B104000010B5044B04009847C1
:100570000020034B2061236010BDC046010800002D
:10058000090500000023083810B50363436A002BF7
:1005900000D0984710BD0023083810B50363C36A24
:1005A000002B00D0984710BD10B50400044B2C3030
:1005B0009847236A083C002B01D02000984710BDC3
:1005C0005F07000070B514000200831D4C32DE8FFF
:1005D0001588AE420AD1816414800022DA87012393
:1005E00008308362034B9847200070BD1C204042B6
:1005F000FBE7C046B9090000010010B50400838F75
:1006000044300088083998420AD0896C581CA08769
:10061000C95C2000044B98472000044B984710BD4C
:100620002000034BFAE7C046B1090000B9090000F9
:10063000C1090000F0B5050085B003A80F4B3435A3
:100640000E00140098470E4B280098470D4B0700EA
:1006500003A8984733193400F7190193A01B80B2FF
:10066000BC4202D0019B9C4201D105B0F0BD2100EB
:100670002800054B98470134F0E7C0468D04000080
:10068000810700009B0400003D07000070B50400D6
:100690000D00343011001A000D4B9847002813D17B
:1006A0002000290008300B4B984700280BD10A4B3B
:1006B00063600A4B23600A4BA3600A4BE3600A4B5A
:1006C00023610A4B636170BD0D204042FBE7C046C9
:1006D000250700004109000035060000C50500009F
:1006E000F9050000A9050000850500009705000038
:1006F00010B50830014B9847002010BD9909000043
:1007000008600020704703680B6001607047036851
:100710000B60016070470368002B01D01A6802600B
:1007200018007047531E1A4005D143608260C260B2
:100730000160100070470D204042FBE78368C268EB
:100740009A4209D0426813400268D35C0B708368F8
:1007500001338360002070470A204042FBE7C268F3
:10076000436813400268D154C36881684268591ACB
:10077000914201D99A1A82600133C3600020704708
:10078000C3688068181A704710B5064B5A685A60DB
:10079000054B9847054B9847054B9847FF20054B5D
:1007A000984710BD00400041D9070000350A0000FD
:1007B000790A0000B9070000C30709D58022054B5C
:1007C00052009A60832252025A605A78D209FCD1B0
:1007D0007047C046000C0040064B1A7AD2B21A721B
:1007E0005A7AD2B25A729A7AD2B29A72DA7AD2B269
:1007F000DA72704700040040837ADB09FCD170474D
:1008000070B501260400C1600A4D0E800800A8479B
:10081000E068A8478023E0680380A847E068836910
:100820008023DB008361A847E3680020DE71024B70
:100830001C6070BDF90700006400002000207047B4
:1008400070B50125064B1C68E3681B7A2B4206D065
:100850002368002B01D020009847E3681D7270BD0B
:1008600064000020002805DB1F2318401E3B834046
:10087000014A13607047C04600E100E0002809DB30
:100880001F2318401E3B8340034AD367BFF34F8F9B
:10089000BFF36F8F7047C04604E100E0002807DB1C
:1008A0001F23C02218401E3B8340024952008B5038
:1008B0007047C04600E100E0C3691942FCD17047AF
:1008C000022210B50368032193430360014B98474C
:1008D00010BDC046B908000070B5C3690400144DCE
:1008E000DB0710D402260321A8472368334205D032
:1008F0002000104B984731002000A8470523032112
:1009000023602000A84720000121A8470A4B2000AF
:1009100023600321A847C0239B02636020000721B6
:10092000A8470020054BA381A0733034207070BD10
:10093000B9080000C108000004003140ADD8FFFF35
:1009400070B50E4B060008000C009847051E13D129
:100950000B4BB4619C4201D10A4B1E600A4BE41858
:10096000A40A093464B22000084B98472000084BC1
:1009700098472000074B9847280070BDD908000011
:10098000000800426800002000F8FFBD7D0800005C
:100990009D08000065080000022310B5806903214E
:1009A000026813430360014B984710BDB90800006B
:1009B000836989B219857047012283699A757047E6
:1009C000022283699A757047194B10B51868012384
:1009D0008469227E1A4206D0A27D1A4203D0237572
:1009E0000368984710BD237E01229B0707D5A37D8E
:1009F000D340134203D0022323758368F1E7237E9B
:100A00005B070BD53723628B1A4202D0083363830E
:100A1000E8E7218D4368C9B29847E3E7237EDB0905
:100A2000E0D080232376C3689847638B9BB2EEE7C0
:100A3000680000200D4B0E481A6A196A0240890F9F
:100A40000C48890701430A431A62022299690A4342
:100A50001F219A611A7F0A401A770822D968114229
:100A6000FCD08022196A0A431A62704700080040CD
:100A70000000FF0F020300000221024A93698B432A
:100A800093617047000800407FB5144B8026002416
:100A9000984701237600124D0093320023000394FF
:100AA000029401940F491048A84702233200009392
:100AB00003942300029401940C490D48A847032392
:100AC000320000930B4923000394029401940A48D6
:100AD000A8470A4B9847200004B070BDE10200000F
:100AE000BD16000048200000710100004B200000EE
:100AF000550200004E200000010B0000E916000026
:100B0000F8B500221021194B0A209847184C194BB0
:100B10002060012098470023174D60602B60210062
:100B200001220831002352422068144EB0470028A9
:100B300000D1F8BD124E29003000124B984730000A
:100B4000114B9847237A114E012B04D0022B02D06F
:100B50000E220F4906E02700093738000D4B984751
:100B6000390082B22868B047D9E7C0463910000082
:100B70006C000020E1110000142A0020E91200009E
:100B8000A829002001070000F1060000A7040000CA
:100B900055200000032000000023012270B50A4CFC
:100BA0000500524219006068084EB04700280AD07C
:100BB000002329001A002068054DA847002360681B
:100BC0001A001900A84770BD6C000020E91200004F
:100BD000911000000300012208334360C3600361E9
:100BE0000023524282600360704700230361704714
:100BF00043689A684B608A609A685160996003689C
:100C0000086101330360704703000A6830B5083398
:100C1000541C0BD103695A684A6091608B6059601B
:100C2000036808610133036030BD23005C682568F8
:100C3000AA42FAD2EFE74168826803698A60826853
:100C400051605968884200D15A60002202611A68D6
:100C5000501E186070470000034B1B68013301D021
:100C600072B6FEE772B6FEE700000020064A13687F
:100C70001868203080F30988022080F314883FBC74
:100C8000AE4662B600BDC046B428002010B5802430
:100C9000031F64041C60043B19600349043B196092
:100CA000143B40381A6010BD590C0000704700001A
:100CB0008022044B52051A60BFF34F8FBFF36F8F32
:100CC0007047C04604ED00E072B6044A1368013371
:100CD0001360BFF34F8FBFF36F8F7047000000208A
:100CE000054A1368002B01D172B6FEE7013B136081
:100CF000002B00D162B6704700000020EFF3108097
:100D000072B67047002080F310887047EFF30980B7
:100D10000E4B1A6820381060F0C044464D465646C7
:100D20005F46F0C008B572B600F01EFE62B60CBC9D
:100D3000116808681030F0C8A046A946B246BB4604
:100D400080F309882038F0C81847C046B42800202E
:100D500010B5074B9847074B04009847002803D06D
:100D60008022054B52051A602000044B984710BDA5
:100D7000FD0C00006D17000004ED00E0070D000001
:100D80000022044B1A60044A044B1A600722044BE9
:100D90001A60704718E000E0E703000014E000E08C
:100DA00010E000E0FF220A4B1204196810B50A4354
:100DB0001A60FF22196812060A431A60054B984709
:100DC0000022054B1A60054B9847054B9847C046D3
:100DD00020ED00E0810D0000000000206D0C0000FF
:100DE000590C0000072370B50400184201D09C4341
:100DF00008340D4B98470D4B1A68002A04D11A008D
:100E000007210C328A431A6009490A484A680025BA
:100E1000A418844204D8A24202D21D684C60AD18C6
:100E2000054B9847280070BD3D1700008400002046
:100E300084280020F727000055180000002801D062
:100E400072B6FEE77047000070B51500026C040032
:100E5000002A0AD10568002D03D14068154B984738
:100E60006560A36B0133A36370BD134B002D0BD1E1
:100E700080689847A368226C9B186268A3609342BD
:100E8000EFD32368A360ECE7C0689847236CE2685F
:100E90005B422168D218E2608A4202D26268D318AB
:100EA000E360022DDDD1A36B002BDAD0A36B013BF5
:100EB000A363D6E7ED1B0000E11F000013B5446DEE
:100EC00001900A00002C01D172B6FEE7A16BE36B22
:100ED000994201D372B6FEE7A16B8B4201D8002084
:100EE00016BD074B01A920009847636A002BF6D076
:100EF0002000044B24309847431E9841F0E7C04639
:100F0000490E0000611A0000030070B51C6808005B
:100F1000002C0AD0D9681A6C5D688918D960A9427A
:100F200000D3DC60D968014B984770BDE11F000019
:100F300070B51E4E0400B047A36C002B0DDC0123DE
:100F40005B42A3641A4DA847B047636C002B1DDCBD
:100F500001235B426364A84770BD636D002B0BD017
:100F600000212000134B9847012801D1124B9847CC
:100F7000A36C013BA364DFE7636A002BDFD0200092
:100F80000E4B243098470028F2D0EFE72369002B5E
:100F9000DED02000094B10309847002801D0064BC6
:100FA0009847636C013B6364CFE7C046C90C0000FF
:100FB000E10C0000BD0E0000491B0000611A00009A
:100FC00070B504000D00002801D172B6FEE7154B84
:100FD0009847216CE36B22684B43D0185B1AD318F7
:100FE000E3600123606000205B42A063A260636451
:100FF000A36485420ED12369834207D020000A4BA7
:1010000010309847012801D1084B9847084B984762
:10101000012070BD2000074D1030A847200024306B
:10102000A847F3E7C90C0000611A0000B10C0000EA
:10103000E10C0000D50B0000F7B505000E00019291
:1010400000280ED058200F4FB847041E09D030009A
:1010500068430130B8472060002804D120000A4BC3
:10106000984772B6FEE7E563266401212000074B2E
:1010700098476A462300127950331A7000232000E3
:101080006365FEBDE50D00003D0E0000C10F0000D0
:10109000F0B589B0041E02910592019301D172B698
:1010A000FEE7029B002B00D06EE0036C002B00D10A
:1010B0006AE072B6FEE7636A002B59D020003B4B12
:1010C0002430984750E0059D002D02D1B8470020FC
:1010D00050E0002E02D106A8354B9847B847354B53
:1010E0009847354B9847636C013301D10023636403
:1010F000A36C013301D10023A364B84705A906A856
:101100002E4B98472E4E2F4D002839D12A4B984709
:10111000A36B0393E36B0493B847039B049A934236
:101120002AD1200005991030274B98472000B0475E
:10113000A847002801D1254B984701261E4B984708
:10114000A36BE26B224F934202D3019B022BBAD1D5
:10115000204B019A029920009847636D002BAAD07A
:10116000019920001C4B9847012801D1174B984743
:10117000B847012009B0F0BD2000B047A847DCE720
:101180002000B047A847A2E7019B022B02D1E36BE6
:10119000012B09D1114B984700260028CED1059E7E
:1011A000002ECBD072B6FEE772B6FEE7611A0000E1
:1011B000CD1A00003D170000C90C0000E51A000020
:1011C000310F000055180000CD190000B10C0000CF
:1011D000E10C0000490E0000BD0E0000611B000084
:1011E00070B5134B060058209847041E1DD00123EC
:1011F0000025C363023B856343648364030050336B
:101200000564456005608560C5601E7010304564EA
:10121000084EB04720002430B0472B002A00290098
:101220002000054DA847200070BD72B6FEE7C046FD
:10123000E50D0000D50B000091100000F7B504008B
:10124000009117001E00002801D172B6FEE7009B36
:10125000002B1AD1036C002B17D072B6FEE7636A1D
:10126000002B32D020001B4B2430984700282CD074
:10127000002F2AD001253D600198174B9847280080
:10128000FEBDA36C0133A3641FE0022E02D1E36B09
:10129000012B1CD1114B9847A36BE26B0190934239
:1012A00002D30025022EE7D10D4B32000099200019
:1012B0009847A36C0133E4D1636D002BCFD031008C
:1012C0002000084B98470128D2D00125D4E772B6F8
:1012D000FEE7C046611A0000070D0000FD0C00008B
:1012E000490E0000BD0E0000F0B587B0041E00914D
:1012F0000392029301D172B6FEE7009B002B00D04F
:101300007FE0036C002B00D17BE072B6FEE7636ADE
:10131000E560002B69D020003F4B2430984700281F
:1013200063D060E0039D002D02D1B84700205EE04D
:10133000002E02D104A8394B9847B847384B98473C
:10134000384B9847636C013301D100236364A36C6D
:10135000013301D10023A364B84703A904A8324B89
:101360009847324E324D002847D12E4B9847A36BF9
:101370000193B847019B002B3BD12368002B05D17B
:10138000284B984760682B4B9847B8472000039933
:101390002430294B98472000B047A847002801D1A6
:1013A000264B984701261F4B9847A36B244F002BD1
:1013B000B8D0244B00992000E5689847029B002B89
:1013C000A5D1A36B013BA3632368002B02D11E4B65
:1013D000984760602369002B07D020000E4B103027
:1013E0009847012801D1154B9847B847012007B00D
:1013F000F0BD2000B047A847D4E72000B047A84779
:1014000094E7124B984700260028CCD1039E002E6B
:10141000C9D072B6FEE7C046611A0000CD1A0000BE
:101420003D170000C90C0000E51A0000310F000054
:1014300055180000791B0000CD190000B10C000008
:10144000E10C0000090F0000551B0000611B0000AB
:1014500070B504000D4B0D009847636C013301D14A
:1014600000236364A36C013301D10023A364084B00
:101470009847A36B002B04D1200029002430054B92
:1014800098472000044B984770BDC046C90C000027
:10149000E10C0000211A0000310F00000020074B72
:1014A0009A6AD26A824207D1DB6A012B04D8044BC4
:1014B0001868044B1B69C01A7047C0468C2800206E
:1014C000040000200C290020074A53691968074BC3
:1014D000002903D1012252421A6070475269D26832
:1014E000D2685268F8E7C0460C29002004000020AA
:1014F0000C4B70B59A6A040050600B4A0B4D116991
:10150000884204D29069996A0431A84770BD506935
:10151000996A0431A847064B1A689442F6D21C60B7
:10152000F4E7C0468C2800200C290020090C00009C
:1015300004000020F0B585B00290524E48200C0007
:1015400017000393B047051E0AD00C98002801D15C
:10155000B800B0472863002805D128004A4B9847B7
:101560000124644281E0BF003A00484BA52198471E
:101570002B6B043FDF1907239F43002300971A00BA
:10158000E15C3432A954E25C002A02D00133082B1A
:10159000F5D12B0000220A9F3B331A70042F00D98B
:1015A00004272B1D1800EF626F64394E0193B0477A
:1015B00028001830B0470523DF1B2D61354BAF6184
:1015C0006D62039A0299009898470B9B2860002B44
:1015D00000D01D60304B9847304E314CF3690133D9
:1015E000F361A36A002B43D1A562F369012B1CD1DF
:1015F00020002C4F2C30B84720004030B847200046
:101600005430B84720006830B84720007C30B847D5
:101610002548B8472548B84720001430B84720006F
:10162000B847214B7361214BB3611C4CEA6AE36CF0
:101630000133E364EB63236D9A4200D922651423DE
:10164000174E534330002C30C0180199184B98475F
:10165000184B9847A36C0124002B06D0B36A0A9A52
:10166000DB6A9A4201D9144B9847200005B0F0BDBF
:10167000B36C002BD9D1A36A0A9ADB6A9A42D4D3FD
:10168000A562D2E7E50D00003D0E0000F31F00004B
:10169000EB0B00008D0C0000C90C00000C29002091
:1016A0008C280020D50B00002C2900204029002088
:1016B000F10B0000E10C0000B10C000030B585B06A
:1016C000089C002801D172B6FEE7042C01D972B63D
:1016D000FEE70A9D00940295099D024C0195A047E2
:1016E00005B030BD3515000030B5002485B002943A
:1016F00001940094230040220A490B480B4DA8474F
:1017000001280BD10A4B9847012807D172B6094B23
:1017100098641C61084B984705B030BD0028FBD188
:1017200072B6FEE7632000001919000035150000AD
:10173000D51C00000C290020A50D0000024A536DA5
:10174000013353657047C0460C29002010B5044B87
:101750009847044B1C69044B9847200010BDC046B5
:10176000C90C00000C290020E10C0000F7B5334C37
:10177000636D002B44D123690133236123690093F6
:10178000002B0ED163691B68002B01D072B6FEE7F7
:101790006369A2696261A361A36D0133A365284BEC
:1017A0009847284B009A1B6800269A4236D36369F3
:1017B0001B68002B29D10122224B52421A602DE0D6
:1017C0002B1D1800204F0193B847AB6A002B02D0A5
:1017D00028001830B847EB6A226D934200D9236580
:1017E00014221A4F534338002C30C018291D184BAF
:1017F0009847BB6AEA6ADB6A9A42D8D30126D6E7E1
:10180000E36D00260133E36512E06369009ADB684B
:10181000DD686B689A42D3D20A4A13600B4B9A6A0E
:10182000D16A14224A439B18DB6A012B00D9012696
:10183000236E002B00D001263000FEBD0C290020B5
:10184000C914000004000020370C00008C28002080
:10185000F10B0000F7B5284C636D002B01D172B677
:10186000FEE7264B9847636D013B6365636D002B74
:1018700004D00024224B98472000FEBDE369002BD2
:10188000F7D0204D6B69002B08D1E36D002B30D1D0
:10189000246E012CEDD11C4B9847EBE72B6A1B4FB4
:1018A000DE6830001830B847331D18000193B84780
:1018B000F36A226D934200D9236514222800534312
:1018C0002C30C018311D124B9847AB6AF26ADB6AA4
:1018D0009A42D6D301232366D3E70E4B98470028BC
:1018E00000D02566E36D013BE365E36D002BF4D189
:1018F000CEE70125F9E7C0460C290020C90C0000FD
:10190000E10C00008C280020B10C0000370C000016
:10191000F10B00006D17000010B50C4BDB6A012BBA
:1019200001D90B4B98470B4CA0470128F5D90A4B1E
:1019300098470A4B1A680A4B1B699A4201D272B641
:10194000FEE7A047074B9847E7E7C0468C280020F2
:10195000B10C00009D1400003D17000004000020A1
:101960000C29002055180000164A10B5536D002BA5
:1019700002D00123136610BD136614231249106DA3
:1019800058430818C06A002812D0146D6343CA185F
:101990001300106B343340681063984201D14368E0
:1019A000136314236343CB181B6BDB688B62E2E782
:1019B000106D002801D172B6FEE7106D0138106578
:1019C000DDE7C0460C2900208C28002070B50C00F3
:1019D000002801D172B6FEE70B4D0C4BA96A1831F5
:1019E0009847A86A0A4B04309847631C05D1A96A36
:1019F00028000431074B984770BD074B1869074B07
:101A000020189847F8E7C0468C280020090C0000F1
:101A1000370C0000F10B00000C290020F11400002D
:101A200070B50C00002801D172B6FEE7074D084BD7
:101A3000A96A18319847A86A064B04309847064BA4
:101A40001869064B0019984770BDC0468C280020C5
:101A5000F10B0000370C00000C290020F1140000ED
:101A6000F8B5C368DC68002C01D172B6FEE7270028
:101A70001837124B38009847114D124E6B6D002BE2
:101A800019D1271D0D4B38009847E26A2B6D9A42F9
:101A900000D92A651423300053432C30C0180A4B58
:101AA00039009847B36AE26ADB6A00209A4201D99A
:101AB00001302866F8BD30001430F0E7370C000024
:101AC0000C2900208C280020F10B0000002801D1F7
:101AD00072B6FEE7024B9A6D1B6902604360704765
:101AE0000C29002070B504000D00002801D172B649
:101AF000FEE7002901D172B6FEE70F4B98470F4A67
:101B00002B6811690026581C12D0906D26686268F7
:101B1000864202D0012691420AD2881A01268342C7
:101B200006D95B1A9B182B602000054B98470026AE
:101B3000044B9847300070BDC90C00000C290020F0
:101B4000CD1A0000E10C00000122014B1A6670471B
:101B50000C290020014B986A7047C0468C28002051
:101B6000044B01209A6C002A03D0586D434258411F
:101B7000400070470C29002070B5051E29D0174C75
:101B8000C06AA36ADB6A984223D2AB69002B04DBEC
:101B90000521A36ADB6AC91AA96114222300424302
:101BA0002C339B186A699A4214D12E1D0C4B3000BD
:101BB0009847A36A0B4ADB6A116DEB628B4200D92E
:101BC00013652000142463432C30C0183100064BE9
:101BD000984770BDA36ADB6AEB62FAE78C280020A5
:101BE000370C00000C290020F10B000070B5041E1A
:101BF0001CD0C36A426C934218D0051D0C4B2800C0
:101C00009847606CA369E062002B02DB05231B1A76
:101C1000A361084B1A6D904200D918651422424303
:101C2000054829002C308018044B984770BDC046E9
:101C3000370C00000C2900208C280020F10B00003C
:101C4000F7B50F4B98470F4C23680193002B11D128
:101C50002500261D30000C4F1835B8472800B8471E
:101C6000019A0C210620094BE6622563984700285B
:101C700003D02060064B9847F7BD72B6FEE7C0461A
:101C8000C90C000070290020D50B0000391000009D
:101C9000E10C000010B54160006191420CD8D21AED
:101CA000836901249A4205D2084B011D186B084B29
:101CB00098470024200010BD9A4202D20124994284
:101CC000F8D2024B011DD86AF1E7C0467029002006
:101CD000090C00001FB50B4B98470B4B1B68002BE2
:101CE0000CD00023022203930092029301933E3210
:101CF00006490748074CA047002801D172B6FEE705
:101D000004B010BD411C0000702900207A200000A2
:101D1000191E0000BD160000F7B507000D001600E3
:101D20000193002912D02C20094B9847041E0BD098
:101D3000084B9847019B27602362089BA56163625B
:101D4000E661201D044B98472000FEBD72B6FEE7F9
:101D5000E50D0000411C0000EB0B0000F0B50F4D3D
:101D600006002C68170085B01A00201E0FD00191C4
:101D70000297039605290CDC094B9847094C002370
:101D80000A9A022800D01A00286801A9A04705B0C5
:101D9000F0BD2000002301A9034CF7E770290020C3
:101DA000611B0000911000003D120000F7B5164DB8
:101DB000EB6A1A68002A03D12A6BEA622B63F7BD2B
:101DC000DB68DC681E68271D104B38009847636A83
:101DD00020009847E369012BE9D1A369F3189E42DB
:101DE00006D2636024613900E86A094B9847DEE750
:101DF0000021200000910B003200064CA047002873
:101E0000D5D172B6FEE7C04670290020370C00001D
:101E1000090C00005D1D0000F0B589B00027524C90
:101E2000E36A1A680392BA4201D0DB681F684F4B1D
:101E300098474F4B984700230293636B05009842E5
:101E400003D24C4B984701230293029B65634A4E91
:101E5000002B5CD1039B002B23D0AF4221D8B0478D
:101E6000E36ADB68DE68454B301D9847F369012B58
:101E700013D1B3692A00F91830003B00404DA84740
:101E800001280AD1029B3A000093190030003D4D11
:101E9000A847002801D172B6FEE73000736A984760
:101EA00008E0791B2068384B9847B047002801D1DB
:101EB000364B9847002305A91A002068344DA847DF
:101EC0000028ABD0059B002BF4DB079D6B69002B32
:101ED00002D0281D294B9847254B9847636B060075
:101EE000984201D2234B9847059B6663092BE1D8A2
:101EF000012284279A40BF001300174026D1C72231
:101F0000134206D19B06D5D52800224BC7E7B04720
:101F1000D0E7069BAA69280099183200184E029350
:101F2000B0470128C6D16B6A28009847EB69012B9E
:101F3000C0D1AB69069A2800D21800973B0039003F
:101F4000104DA8470028B5D172B6FEE70699A961E1
:101F5000002901D172B6FEE789193300320028004A
:101F6000074DA847A6E7C046702900203D1700008E
:101F70004D170000AD1D000055180000370C000083
:101F8000951C00005D1D000051140000B10C000004
:101F9000E91200003D0E000070B500260C4D0D4CFE
:101FA000641BA410A64209D1002600F06BF80A4D6C
:101FB0000A4C641BA410A64205D170BDB300EB58B7
:101FC00098470136EEE7B300EB5898470136F2E741
:101FD000902000009020000090200000942000003D
:101FE000002310B59A4200D110BDCC5CC45401331B
:101FF000F8E703008218934200D17047197001334B
:10200000F9E70023C25C0133002AFBD1581E704758
:1020100041312054696D656F7574004131205761FD
:102020006B652055702054696D65720041322054F3
:10203000696D656F75740041322057616B6520557D
:10204000702054696D657200413100413200534582
:102050005249414C00556E6B6E6F776E2074617300
:102060006B3A0049444C450025730909256309254D
:10207000750925750925750D0A00546D7220537672
:1020800063000000F8B5C046F8BC08BC9E46704727
:10209000DD000000F8B5C046F8BC08BC9E4670479D
:0420A000B500000087
:0820A400AAAAAAAAFFFFFFFF90
:00000001FF
