:1000000038360020250300002103000021030000F2
:1000100000000000000000000000000000000000E0
:10002000000000000000000000000000D90C0000EB
:100030000000000000000000390D00007D0D0000F0
:1000400021030000210300002103000075080000C7
:100050002103000021030000210300002103000010
:1000600021030000FD09000021030000210300001E
:1000700021030000210300002103000021030000F0
:1000800021030000210300002103000021030000E0
:100090002103000000000000000000002103000018
:1000A00021030000210300002103000021030000C0
:1000B0000000000010B5064C2378002B07D1054B3B
:1000C000002B02D0044800E000BF0123237010BDC4
:1000D0000800002000000000E0200000084B10B5E0
:1000E000002B03D00749084800E000BF0748036819
:1000F000002B00D110BD064B002BFBD09847F9E731
:10010000000000000C000020E0200000E0200000C3
:1001100000000000F7B50F4C2668864218D1002574
:10012000271D601D0B220C490C4B257198472A0096
:1001300039002B0060690A4CA0470A4B98470123FD
:100140005B420200009302212B003000064CA047C6
:10015000F7BDC046240000203C2000000D20000018
:10016000BD10000079170000891D0000F0B50022C5
:1001700085B010211B4B0A2098471B4C1B4B60611C
:10018000012098471A4BFA210093002389001A0096
:10019000184D1948A847194B0125060020609847BB
:1001A00001276D4202000095300000230121144E0A
:1001B000B0470395250018350023039A290060698C
:1001C000104EB047002801D105B0F0BD143D601DB0
:1001D0000A220D490D4B2771984728000C4B984770
:1001E000E8E7C04665100000240000200D12000062
:1001F00015010000451D0000472000007917000090
:10020000891D000015130000582000000D2000007B
:10021000CD0B0000F7B50F4C2668864218D100259B
:10022000271D601D0B220C490C4B257198472A0095
:1002300039002B0060690A4CA0470A4B98470123FC
:100240005B420200009302212B003000064CA047C5
:10025000F7BDC0464C000020612000000D200000CA
:10026000BD10000079170000891D0000F0B50022C4
:1002700085B010211A4B0A2098471A4C1A4B60611E
:1002800001209847194B1A4900930023194D1A0071
:100290001948A847194B01250600206098470227F6
:1002A0006D4202000095300000230121144EB0473A
:1002B0000395250018350023039A29006069114E23
:1002C000B047002801D105B0F0BD143D601D0A22E1
:1002D0000D490E4B2771984728000D4B9847E8E7CA
:1002E000651000004C0000200D12000015020000F7
:1002F000DC050000451D00006C200000791700009F
:10030000891D0000151300007D2000000D20000055
:10031000CD0B000010B5014B984710BD71040000D3
:10032000FEE700002148224970B5884204D000232E
:10033000204CCA18A24232D300211F4B1F4A9342BD
:1003400031D3FF211E4B1F4A8B43936002220C25A1
:10035000082430261C4B1D485A62C378FC398B4355
:100360001343C370C378AB432343C370184B987BCC
:10037000B0430600202030439873987BA843044381
:100380009C73987B884302439A738023114A516877
:100390000B435360104B9847104B9847FEE7C558E6
:1003A00004331560C5E702C3C9E7C046E02000007A
:1003B000000000200800002008000020381600205F
:1003C0000000000000ED00E0FC7000410050004122
:1003D0000048004100400041C51F0000BD0A000068
:1003E0000423044A116A0B431362034A034B5A80E5
:1003F0007047C0460004004014400000000C00405C
:100400000D4B0122180030B54A3001780F2491437A
:10041000114301701900022035310D784B33A5438B
:10042000284308701878904302431A700B781C40D8
:10043000202323430B7030BD0044004113B5064B0D
:1004400098470023054A009305491033054C064898
:10045000A047064B984713BDE1030000740000203D
:1004600000080042C1060000C81500200104000079
:1004700010B50A4B98470A4B98472023094A9169BF
:100480000B439361084A094B5A80094B9847094925
:100490000200094B0948984710BDC046BD0700003F
:1004A0003D0400000004004004400000000C004037
:1004B00071080000001400409D050000181600207F
:1004C000EFF31083036072B6BFF35F8F7047BFF323
:1004D0005F8F036883F31088704710B503689847EF
:1004E00010BD0000F7B50568002D02D1114B9847EB
:1004F000F7BD01262C0000278B680093B31A0193E7
:10050000A6686368B44693420DD863449B1A009E64
:10051000B3420CD223682700002B02D13800064BCF
:10052000E5E71C00ECE7019EF3186344EFE7A54202
:10053000F4D1DBE73B07000043070000F8B503698F
:1005400005005E1C037E44690661DB0702D4037E5E
:100550009B0717D502232A7E13432B76F8BD2F0065
:1005600014370C4B38009847237C012B05D166606B
:10057000320021003800084B98476F69E36820007B
:1005800098473C00002CE9D06368A268F31A9342B4
:10059000E5D2E3E74B070000E504000010B5044B8B
:1005A000040098470020034B2061236010BDC04623
:1005B000350800003D0500000023083810B503632E
:1005C000436A002B00D0984710BD0023083810B5AF
:1005D0000363C36A002B00D0984710BD10B5040018
:1005E000044B2C309847236A083C002B01D0200094
:1005F000984710BD9307000070B514000200831DDA
:100600004C32DE8F1588AE420AD1816414800022FC
:10061000DA87012308308362034B9847200070BDBE
:100620001C204042FBE7C046ED090000010010B568
:100630000400838F44300088083998420AD0896CBE
:10064000581CA087C95C2000044B98472000044B2D
:10065000984710BD2000034BFAE7C046E5090000AB
:10066000ED090000F5090000F0B5050085B003A80C
:100670000F4B34350E00140098470E4B2800984756
:100680000D4B070003A8984733193400F71901935D
:10069000A01B80B2BC4202D0019B9C4201D105B09C
:1006A000F0BD21002800054B98470134F0E7C04613
:1006B000C1040000B5070000CF040000710700006E
:1006C00070B504000D00343011001A000D4B98472E
:1006D000002813D12000290008300B4B9847002830
:1006E0000BD10A4B63600A4B23600A4BA3600A4B91
:1006F000E3600A4B23610A4B636170BD0D204042E9
:10070000FBE7C046590700007509000069060000B4
:10071000F90500002D060000DD050000B905000008
:10072000CB05000010B50830014B9847002010BDE4
:10073000CD09000008600020704703680B6001606D
:10074000704703680B60016070470368002B01D09D
:100750001A68026018007047531E1A4005D14360A2
:100760008260C2600160100070470D204042FBE7CC
:100770008368C2689A4209D0426813400268D35C19
:100780000B70836801338360002070470A20404269
:10079000FBE7C268436813400268D154C3688168AC
:1007A0004268591A914201D99A1A82600133C36092
:1007B00000207047C3688068181A704710B5064B50
:1007C0005A685A60054B9847054B9847054B984720
:1007D000FF20054B984710BD004000410D08000068
:1007E000690A0000AD0A0000ED070000C30709D543
:1007F0008022054B52009A60832252025A605A7836
:10080000D209FCD17047C046000C0040064B1A7A52
:10081000D2B21A725A7AD2B25A729A7AD2B29A7200
:10082000DA7AD2B2DA72704700040040837ADB09C8
:10083000FCD1704770B501260400C1600A4D0E80DE
:100840000800A847E068A8478023E0680380A8471D
:10085000E06883698023DB008361A847E3680020A8
:10086000DE71024B1C6070BD2D080000840000206A
:100870000020704770B50125064B1C68E3681B7AA1
:100880002B4206D02368002B01D020009847E36854
:100890001D7270BD84000020002805DB1F23184056
:1008A0001E3B8340014A13607047C04600E100E0F0
:1008B000002809DB1F2318401E3B8340034AD367EF
:1008C000BFF34F8FBFF36F8F7047C04604E100E066
:1008D000002807DB1F23C02218401E3B834002492B
:1008E00052008B507047C04600E100E0C3691942D6
:1008F000FCD17047022210B50368032193430360C3
:10090000014B984710BDC046ED08000070B5C369A3
:100910000400144DDB0710D402260321A8472368E6
:10092000334205D02000104B984731002000A847E3
:100930000523032123602000A84720000121A847A8
:100940000A4B200023600321A847C0239B02636059
:1009500020000721A8470020054BA381A073303455
:10096000207070BDED080000F50800000400314063
:10097000ADD8FFFF70B50E4B060008000C0098477D
:10098000051E13D10B4BB4619C4201D10A4B1E6072
:100990000A4BE418A40A093464B22000084B9847B3
:1009A0002000084B98472000074B9847280070BD4F
:1009B0000D090000000800428800002000F8FFBD7B
:1009C000B1080000D108000099080000022310B50A
:1009D00080690321026813430360014B984710BDEF
:1009E000ED080000836989B2198570470122836987
:1009F0009A757047022283699A757047194B10B532
:100A0000186801238469227E1A4206D0A27D1A4208
:100A100003D023750368984710BD237E01229B07EE
:100A200007D5A37DD340134203D0022323758368E7
:100A3000F1E7237E5B070BD53723628B1A4202D086
:100A400008336383E8E7218D4368C9B29847E3E739
:100A5000237EDB09E0D080232376C3689847638B2D
:100A60009BB2EEE7880000200D4B0E481A6A196A07
:100A70000240890F0C48890701430A431A62022287
:100A800099690A431F219A611A7F0A401A7708223E
:100A9000D9681142FCD08022196A0A431A62704751
:100AA000000800400000FF0F020300000221024A7C
:100AB00093698B4393617047000800407FB5144BE6
:100AC00080260024984701237600124D00933200BF
:100AD00023000394029401940F491048A84702236D
:100AE0003200009303942300029401940C490D48B2
:100AF000A8470323320000930B4923000394029478
:100B000001940A48A8470A4B9847200004B070BDDA
:100B100015030000E9160000862000006D010000AA
:100B2000892000006D0200008C200000350B0000C1
:100B300015170000F8B500221021194B0A2098471C
:100B4000184C194B2060012098470023174D606016
:100B50002B60210001220831002352422068144EEC
:100B6000B047002800D1F8BD124E29003000124BCA
:100B700098473000114B9847237A114E012B04D02F
:100B8000022B02D00E220F4906E027000937380059
:100B90000D4B9847390082B22868B047D9E7C04664
:100BA000651000008C0000200D120000341600209B
:100BB00015130000C81500203507000025070000A8
:100BC000DB040000932000002F20000000230122FE
:100BD00070B5084C0500524219006068064EB047D7
:100BE000002805D0002320681A002900034CA047E4
:100BF00070BDC0468C00002015130000BD10000021
:100C00000300012208334360C360036100235242A2
:100C100082600360704700230361704743689A68ED
:100C20004B608A609A68516099600368086101337B
:100C30000360704703000A6830B50833541C0BD1B9
:100C400003695A684A6091608B6059600368086163
:100C50000133036030BD23005C682568AA42FAD2E4
:100C6000EFE74168826803698A6082685160596869
:100C7000884200D15A60002202611A68501E186032
:100C800070470000034B1B68013301D072B6FEE7CA
:100C900072B6FEE700000020064A1368186820308C
:100CA00080F30988022080F314883FBCAE4662B608
:100CB00000BDC046D414002010B58024031F640476
:100CC0001C60043B19600349043B1960143B403825
:100CD0001A6010BD850C0000704700008022044B94
:100CE00052051A60BFF34F8FBFF36F8F7047C04636
:100CF00004ED00E072B6044A136801331360BFF3D9
:100D00004F8FBFF36F8F704700000020054A1368B4
:100D1000002B01D172B6FEE7013B1360002B00D11E
:100D200062B6704700000020EFF3108072B6704783
:100D3000002080F310887047EFF309800E4B1A688B
:100D400020381060F0C044464D4656465F46F0C01D
:100D500008B572B600F01EFE62B60CBC11680868D9
:100D60001030F0C8A046A946B246BB4680F30988B9
:100D70002038F0C81847C046D414002010B5074BDF
:100D80009847074B04009847002803D08022054B62
:100D900052051A602000044B984710BD290D000031
:100DA0009917000004ED00E0330D00000022044B11
:100DB0001A60044A044B1A600722044B1A607047F9
:100DC00018E000E0E703000014E000E010E000E0BD
:100DD000FF220A4B1204196810B50A431A60FF2259
:100DE000196812060A431A60054B98470022054B02
:100DF0001A60054B9847054B9847C04620ED00E028
:100E0000AD0D000000000020990C0000850C0000D2
:100E1000072370B50400184201D09C4308340D4BE1
:100E200098470D4B1A68002A04D11A0007210C328A
:100E30008A431A6009490A484A680025A41884426E
:100E400004D8A24202D21D684C60AD18054B9847E9
:100E5000280070BD69170000A4000020A414002021
:100E6000F713000081180000002801D072B6FEE7D9
:100E70007047000070B51500026C0400002A0AD10A
:100E80000568002D03D14068154B98476560A36B3A
:100E90000133A36370BD134B002D0BD180689847BD
:100EA000A368226C9B186268A3609342EFD3236807
:100EB000A360ECE7C0689847236CE2685B42216856
:100EC000D218E2608A4202D26268D318E360022D2F
:100ED000DDD1A36B002BDAD0A36B013BA363D6E774
:100EE000191C00000D20000013B5446D01900A008C
:100EF000002C01D172B6FEE7A16BE36B994201D3DE
:100F000072B6FEE7A16B8B4201D8002016BD074BDD
:100F100001A920009847636A002BF6D02000044BFB
:100F200024309847431E9841F0E7C046750E0000F4
:100F30008D1A0000030070B51C680800002C0AD050
:100F4000D9681A6C5D688918D960A94200D3DC6041
:100F5000D968014B984770BD0D20000070B51E4E3A
:100F60000400B047A36C002B0DDC01235B42A3649B
:100F70001A4DA847B047636C002B1DDC01235B4270
:100F80006364A84770BD636D002B0BD00021200067
:100F9000134B9847012801D1124B9847A36C013B92
:100FA000A364DFE7636A002BDFD020000E4B243000
:100FB00098470028F2D0EFE72369002BDED020000D
:100FC000094B10309847002801D0064B9847636CB6
:100FD000013B6364CFE7C046F50C00000D0D000037
:100FE000E90E0000751B00008D1A000070B50400AA
:100FF0000D00002801D172B6FEE7154B9847216C11
:10100000E36B22684B43D0185B1AD318E3600123CB
:10101000606000205B42A063A2606364A3648542B9
:101020000ED12369834207D020000A4B1030984725
:10103000012801D1084B9847084B9847012070BD03
:101040002000074D1030A84720002430A847F3E7C0
:10105000F50C00008D1A0000DD0C00000D0D0000E5
:10106000010C0000F7B505000E00019200280ED01B
:1010700058200F4FB847041E09D030006843013094
:10108000B8472060002804D120000A4B984772B668
:10109000FEE7E563266401212000074B98476A4676
:1010A0002300127950331A70002320006365FEBDBF
:1010B000110E0000690E0000ED0F0000F0B589B0C0
:1010C000041E02910592019301D172B6FEE7029BC4
:1010D000002B00D06EE0036C002B00D16AE072B6EA
:1010E000FEE7636A002B59D020003B4B2430984721
:1010F00050E0059D002D02D1B847002050E0002EA1
:1011000002D106A8354B9847B847354B9847354B21
:101110009847636C013301D100236364A36C0133EE
:1011200001D10023A364B84705A906A82E4B984710
:101130002E4E2F4D002839D12A4B9847A36B03938D
:10114000E36B0493B847039B049A93422AD120008F
:1011500005991030274B98472000B047A847002832
:1011600001D1254B984701261E4B9847A36BE26B94
:10117000224F934202D3019B022BBAD1204B019AFA
:10118000029920009847636D002BAAD00199200096
:101190001C4B9847012801D1174B9847B8470120AD
:1011A00009B0F0BD2000B047A847DCE72000B047F9
:1011B000A847A2E7019B022B02D1E36B012B09D1C7
:1011C000114B984700260028CED1059E002ECBD08B
:1011D00072B6FEE772B6FEE78D1A0000F91A00003B
:1011E00069170000F50C0000111B00005D0F0000E6
:1011F00081180000F9190000DD0C00000D0D000041
:10120000750E0000E90E00008D1B000070B5134B39
:10121000060058209847041E1DD001230025C363F3
:10122000023B856343648364030050330564456077
:1012300005608560C5601E7010304564084EB0477B
:1012400020002430B0472B002A0029002000054D43
:10125000A847200070BD72B6FEE7C046110E000020
:10126000010C0000BD100000F7B50400009117004C
:101270001E00002801D172B6FEE7009B002B1AD198
:10128000036C002B17D072B6FEE7636A002B32D0D6
:1012900020001B4B2430984700282CD0002F2AD048
:1012A00001253D600198174B98472800FEBDA36CAF
:1012B0000133A3641FE0022E02D1E36B012B1CD18A
:1012C000114B9847A36BE26B0190934202D3002528
:1012D000022EE7D10D4B3200009920009847A36CF5
:1012E0000133E4D1636D002BCFD031002000084BD7
:1012F00098470128D2D00125D4E772B6FEE7C04650
:101300008D1A0000330D0000290D0000750E00003D
:10131000E90E0000F0B587B0041E0091039202931D
:1013200001D172B6FEE7009B002B00D07FE0036C7A
:10133000002B00D17BE072B6FEE7636AE560002B0C
:1013400069D020003F4B24309847002863D060E0EC
:10135000039D002D02D1B84700205EE0002E02D18F
:1013600004A8394B9847B847384B9847384B9847AB
:10137000636C013301D100236364A36C013301D199
:101380000023A364B84703A904A8324B9847324E00
:10139000324D002847D12E4B9847A36B0193B84795
:1013A000019B002B3BD12368002B05D1284B98478C
:1013B00060682B4B9847B847200003992430294B8D
:1013C00098472000B047A847002801D1264B9847EE
:1013D00001261F4B9847A36B244F002BB8D0244BFA
:1013E00000992000E5689847029B002BA5D1A36BCC
:1013F000013BA3632368002B02D11E4B984760601A
:101400002369002B07D020000E4B1030984701288D
:1014100001D1154B9847B847012007B0F0BD200017
:10142000B047A847D4E72000B047A84794E7124B3D
:10143000984700260028CCD1039E002EC9D072B652
:10144000FEE7C0468D1A0000F91A00006917000077
:10145000F50C0000111B00005D0F0000811800005A
:10146000A51B0000F9190000DD0C00000D0D0000A7
:10147000350F0000811B00008D1B000070B50400BB
:101480000D4B0D009847636C013301D10023636459
:10149000A36C013301D10023A364084B9847A36BCD
:1014A000002B04D1200029002430054B9847200050
:1014B000044B984770BDC046F50C00000D0D0000B0
:1014C0004D1A00005D0F00000020074B9A6AD26A97
:1014D000824207D1DB6A012B04D8044B1868044B05
:1014E0001B69C01A7047C046AC14002004000020DD
:1014F0002C150020074A53691968074B002903D1AE
:10150000012252421A6070475269D268D26852680A
:10151000F8E7C0462C150020040000200C4B70B5E5
:101520009A6A040050600B4A0B4D1169884204D23C
:101530009069996A0431A84770BD5069996A04316D
:10154000A847064B1A689442F6D21C60F4E7C046DE
:10155000AC1400202C150020350C000004000020E5
:10156000F0B585B00290524E48200C00170003934E
:10157000B047051E0AD00C98002801D1B800B0472A
:101580002863002805D128004A4B9847012464426B
:1015900081E0BF003A00484BA52198472B6B043FE0
:1015A000DF1907239F43002300971A00E15C3432C0
:1015B000A954E25C002A02D00133082BF5D12B009C
:1015C00000220A9F3B331A70042F00D904272B1DD9
:1015D0001800EF626F64394E0193B047280018304D
:1015E000B0470523DF1B2D61354BAF616D62039A58
:1015F0000299009898470B9B2860002B00D01D6033
:10160000304B9847304E314CF3690133F361A36A94
:10161000002B43D1A562F369012B1CD120002C4F74
:101620002C30B84720004030B84720005430B8472D
:1016300020006830B84720007C30B8472548B847BC
:101640002548B84720001430B8472000B847214B40
:101650007361214BB3611C4CEA6AE36C0133E364B0
:10166000EB63236D9A4200D922651423174E53432E
:1016700030002C30C0180199184B9847184B9847E8
:10168000A36C0124002B06D0B36A0A9ADB6A9A4243
:1016900001D9144B9847200005B0F0BDB36C002B66
:1016A000D9D1A36A0A9ADB6A9A42D4D3A562D2E757
:1016B000110E0000690E00001F200000170C000032
:1016C000B90C0000F50C00002C150020AC14002013
:1016D000010C00004C150020601500201D0C0000BE
:1016E0000D0D0000DD0C000030B585B0089C002811
:1016F00001D172B6FEE7042C01D972B6FEE70A9D4D
:1017000000940295099D024C0195A04705B030BD9B
:101710006115000030B5002485B002940194009456
:10172000230040220A490B480B4DA84701280BD142
:101730000A4B9847012807D172B6094B98641C617F
:10174000084B984705B030BD0028FBD172B6FEE7C4
:10175000A12000004519000061150000011D0000D6
:101760002C150020D10D0000024A536D0133536542
:101770007047C0462C15002010B5044B9847044B09
:101780001C69044B9847200010BDC046F50C0000B2
:101790002C1500200D0D0000F7B5334C636D002BA8
:1017A00044D123690133236123690093002B0ED1B7
:1017B00063691B68002B01D072B6FEE76369A269FA
:1017C0006261A361A36D0133A365284B9847284B41
:1017D000009A1B6800269A4236D363691B68002B67
:1017E00029D10122224B52421A602DE02B1D1800F4
:1017F000204F0193B847AB6A002B02D02800183065
:10180000B847EB6A226D934200D9236514221A4F20
:10181000534338002C30C018291D184B9847BB6A19
:10182000EA6ADB6A9A42D8D30126D6E7E36D00263E
:101830000133E36512E06369009ADB68DD686B6879
:101840009A42D3D20A4A13600B4B9A6AD16A142285
:101850004A439B18DB6A012B00D90126236E002B1B
:1018600000D001263000FEBD2C150020F51400002C
:1018700004000020630C0000AC1400201D0C0000CC
:10188000F7B5284C636D002B01D172B6FEE7264BED
:101890009847636D013B6365636D002B04D00024A2
:1018A000224B98472000FEBDE369002BF7D0204D66
:1018B0006B69002B08D1E36D002B30D1246E012C15
:1018C000EDD11C4B9847EBE72B6A1B4FDE683000CD
:1018D0001830B847331D18000193B847F36A226DDA
:1018E000934200D923651422280053432C30C0189A
:1018F000311D124B9847AB6AF26ADB6A9A42D6D323
:1019000001232366D3E70E4B9847002800D02566B5
:10191000E36D013BE365E36D002BF4D1CEE70125D8
:10192000F9E7C0462C150020F50C00000D0D000055
:10193000AC140020DD0C0000630C00001D0C000046
:101940009917000010B50C4BDB6A012B01D90B4B2A
:1019500098470B4CA0470128F5D90A4B98470A4BEA
:101960001A680A4B1B699A4201D272B6FEE7A04779
:10197000074B9847E7E7C046AC140020DD0C000099
:10198000C914000069170000040000202C15002075
:1019900081180000164A10B5536D002B02D00123A8
:1019A000136610BD136614231249106D58430818AE
:1019B000C06A002812D0146D6343CA181300106B5C
:1019C000343340681063984201D143681363142391
:1019D0006343CB181B6BDB688B62E2E7106D00285A
:1019E00001D172B6FEE7106D01381065DDE7C04623
:1019F0002C150020AC14002070B50C00002801D17B
:101A000072B6FEE70B4D0C4BA96A18319847A86ACD
:101A10000A4B04309847631C05D1A96A2800043199
:101A2000074B984770BD074B1869074B201898471C
:101A3000F8E7C046AC140020350C0000630C000031
:101A40001D0C00002C1500201D15000070B50C00A9
:101A5000002801D172B6FEE7074D084BA96A18317C
:101A60009847A86A064B04309847064B1869064BFE
:101A70000019984770BDC046AC1400201D0C000032
:101A8000630C00002C1500201D150000F8B5C3687C
:101A9000DC68002C01D172B6FEE727001837124B24
:101AA00038009847114D124E6B6D002B19D1271D30
:101AB0000D4B38009847E26A2B6D9A4200D92A658F
:101AC0001423300053432C30C0180A4B3900984778
:101AD000B36AE26ADB6A00209A4201D901302866C3
:101AE000F8BD30001430F0E7630C00002C15002026
:101AF000AC1400201D0C0000002801D172B6FEE7D6
:101B0000024B9A6D1B690260436070472C150020E0
:101B100070B504000D00002801D172B6FEE700295F
:101B200001D172B6FEE70F4B98470F4A2B68116937
:101B30000026581C12D0906D26686268864202D03A
:101B4000012691420AD2881A0126834206D95B1ADD
:101B50009B182B602000054B98470026044B9847A4
:101B6000300070BDF50C00002C150020F91A0000A3
:101B70000D0D00000122014B1A6670472C15002044
:101B8000014B986A7047C046AC140020044B0120FA
:101B90009A6C002A03D0586D434258414000704768
:101BA0002C15002070B5051E29D0174CC06AA36AF9
:101BB000DB6A984223D2AB69002B04DB0521A36AC0
:101BC000DB6AC91AA9611422230042432C339B18F3
:101BD0006A699A4214D12E1D0C4B30009847A36AB3
:101BE0000B4ADB6A116DEB628B4200D91365200052
:101BF000142463432C30C0183100064B984770BD45
:101C0000A36ADB6AEB62FAE7AC140020630C000005
:101C10002C1500201D0C000070B5041E1CD0C36ADA
:101C2000426C934218D0051D0C4B28009847606CFD
:101C3000A369E062002B02DB05231B1AA361084B9A
:101C40001A6D904200D918651422424305482900B4
:101C50002C308018044B984770BDC046630C0000C0
:101C60002C150020AC1400201D0C0000F7B50F4B04
:101C700098470F4C23680193002B11D12500261D96
:101C800030000C4F1835B8472800B847019A0C218E
:101C90000620094BE66225639847002803D02060A0
:101CA000064B9847F7BD72B6FEE7C046F50C00003C
:101CB00090150020010C0000651000000D0D0000C3
:101CC00010B54160006191420CD8D21A8369012499
:101CD0009A4205D2084B011D186B084B9847002407
:101CE000200010BD9A4202D201249942F8D2024B40
:101CF000011DD86AF1E7C04690150020350C0000A0
:101D00001FB50B4B98470B4B1B68002B0CD00023C7
:101D1000022203930092029301933E320649074840
:101D2000074CA047002801D172B6FEE704B010BDF1
:101D30006D1C000090150020B8200000451E00001A
:101D4000E9160000F7B507000D0016000193002901
:101D500012D02C20094B9847041E0BD0084B9847F3
:101D6000019B27602362089BA5616362E661201DD9
:101D7000044B98472000FEBD72B6FEE7110E00002E
:101D80006D1C0000170C0000F0B50F4D06002C680C
:101D9000170085B01A00201E0FD0019102970396FC
:101DA00005290CDC094B9847094C00230A9A0228A4
:101DB00000D01A00286801A9A04705B0F0BD200096
:101DC000002301A9034CF7E7901500208D1B0000AC
:101DD000BD10000069120000F7B5164DEB6A1A68D5
:101DE000002A03D12A6BEA622B63F7BDDB68DC684B
:101DF0001E68271D104B38009847636A20009847DB
:101E0000E369012BE9D1A369F3189E4206D263600E
:101E100024613900E86A094B9847DEE70021200079
:101E200000910B003200064CA0470028D5D172B6B5
:101E3000FEE7C04690150020630C0000350C000042
:101E4000891D0000F0B589B00027524CE36A1A687A
:101E50000392BA4201D0DB681F684F4B98474F4B43
:101E6000984700230293636B0500984203D24C4BC2
:101E7000984701230293029B65634A4E002B5CD175
:101E8000039B002B23D0AF4221D8B047E36ADB6825
:101E9000DE68454B301D9847F369012B13D1B369B8
:101EA0002A00F91830003B00404DA84701280AD10C
:101EB000029B3A000093190030003D4DA8470028CE
:101EC00001D172B6FEE73000736A984708E0791BCB
:101ED0002068384B9847B047002801D1364B9847C7
:101EE000002305A91A002068344DA8470028ABD06C
:101EF000059B002BF4DB079D6B69002B02D0281D8E
:101F0000294B9847254B9847636B0600984201D2AE
:101F1000234B9847059B6663092BE1D80122842750
:101F20009A40BF001300174026D1C722134206D1A2
:101F30009B06D5D52800224BC7E7B047D0E7069BC4
:101F4000AA69280099183200184E0293B047012858
:101F5000C6D16B6A28009847EB69012BC0D1AB69E9
:101F6000069A2800D21800973B003900104DA84768
:101F70000028B5D172B6FEE70699A961002901D102
:101F800072B6FEE78919330032002800074DA847D2
:101F9000A6E7C046901500206917000079170000D9
:101FA000D91D000081180000630C0000C11C000056
:101FB000891D00007D140000DD0C000015130000D9
:101FC000690E000070B500260C4D0D4C641BA4106A
:101FD000A64209D1002600F073F80A4D0A4C641B92
:101FE000A410A64205D170BDB300EB589847013646
:101FF000EEE7B300EB5898470136F2E7CC2000003B
:10200000CC200000CC200000D0200000002310B520
:102010009A4200D110BDCC5CC4540133F8E70300F0
:102020008218934200D1704719700133F9E70023F9
:10203000C25C0133002AFBD1581E70474131205445
:10204000696D656F75740041312057616B6520556E
:10205000702054696D65720048656C6C6F310A0DB3
:102060000041322054696D656F757400413220570C
:10207000616B652055702054696D65720048656C10
:102080006C6F320A0D004131004132005345524914
:10209000414C00556E6B6E6F776E207461736B3AB6
:1020A0000049444C45002573090925630925750934
:1020B00025750925750D0A00546D7220537663004D
:1020C000F8B5C046F8BC08BC9E467047DD0000006D
:1020D000F8B5C046F8BC08BC9E467047B500000085
:0820E000AAAAAAAAFFFFFFFF54
:00000001FF
